:100000000C942A000C9447000C9447000C94470071
:100010000C9447000C9447000C9447000C94470044
:100020000C9447000C9447000C9447000C94470034
:100030000C9449000C94C5000C949E000C9447004D
:100040000C9447000C9447000C9447000C94470014
:100050000C94470011241FBECFE5D8E0DEBFCDBF12
:1000600010E0A0E6B0E0E6EBF6E002C005900D92ED
:10007000A636B107D9F724E0A6E6B0E001C01D928C
:10008000A536B207E1F70E9436030C9459030C948D
:1000900000001F920F920FB60F9211242F933F93DF
:1000A0004F935F936F937F938F939F93AF93BF9380
:1000B000EF93FF938FB1E0916600F091670009958F
:1000C000FF91EF91BF91AF919F918F917F916F9130
:1000D0005F914F913F912F910F900FBE0F901F9006
:1000E0001895FC011DB82DB18581822B908120E8E7
:1000F000929FA0011124282F242B918130E2939FFD
:10010000C0011124822B928140E1949F900111241F
:10011000282B8381880F880F880F282B8481880FD4
:10012000880F282B2DB96E9A08956F9808958FB96E
:100130000895909367008093660008951F920F9230
:100140000FB60F9211242F933F934F935F936F93AA
:100150007F938F939F93AF93BF93EF93FF93E09120
:100160006A00F0916B000995FF91EF91BF91AF91FB
:100170009F918F917F916F915F914F913F912F91BF
:100180000F900FBE0F901F9018951F920F920FB6F1
:100190000F9211242F933F934F935F936F937F930D
:1001A0008F939F93AF93BF93EF93FF938CB1E091A5
:1001B0006800F09169000995FF91EF91BF91AF91AF
:1001C0009F918F917F916F915F914F913F912F916F
:1001D0000F900FBE0F901F90189589E189B98AB1D1
:1001E00088618AB980B5866880BD0895909369005A
:1001F00080936800579A089591E090937000209141
:10020000710030917200A9014F5F5F4F50937200EF
:1002100040937100F901ED58FF4F808308951092CB
:10022000720010927100109270000895CF93DF93C6
:10023000EC010E940F01ECE6F0E088819981918346
:1002400080838A8182839B819383811106C00E946F
:10025000ED008CEF90E00E94F600DF91CF910895C1
:10026000809170008823A9F0109270006091710055
:1002700070917200FB01EE58FF4F908180916F00EA
:10028000981307C0E0916C00F0916D0083E790E057
:100290000995089580915C0490915D042091620419
:1002A000309163042817390718F120916404213034
:1002B00051F42091600430916104F901E80FF91FB5
:1002C00080810E94970020915C0430915D04C901F7
:1002D000019690935D0480935C0440916204509178
:1002E00063044817590720F430935D0420935C049D
:1002F00081E080935B04089510925D0410925C0489
:1003000010925B0408950F931F93CF93DF9300D057
:1003100000D000D0CDB7DEB78C010E947C01D8019F
:1003200016968C911697EEE5F4E0868314962D913F
:100330003C911597358324832D913C9111973183FE
:10034000208312962D913C91139733832283813021
:1003500009F586E0E0E6F0E0DE01119601900D92ED
:100360008A95E1F7CE0101960E9471008AE491E03E
:100370000E949900E0916004F091610480810E94E4
:10038000970080915C0490915D04019690935D04C8
:1003900080935C0426960FB6F894DEBF0FBECDBFE7
:1003A000DF91CF911F910F91089580915B04882375
:1003B000C1F010925B04209162043091630480913B
:1003C0005C0490915D042817390759F48091640406
:1003D000813011F40E949500E0915E04F0915F0479
:1003E000099508958830E8F461110EC04AB321E000
:1003F00030E0B90102C0660F771F8A95E2F7CB01A2
:10040000809584238ABB08954AB321E030E0B90186
:1004100002C0660F771F8A95E2F7CB01842B8ABB57
:10042000089598EF980F9830E8F461110EC047B323
:1004300021E030E0B90102C0660F771F9A95E2F71C
:10044000CB018095842387BB089547B321E030E03A
:10045000B90102C0660F771F9A95E2F7CB01842B92
:1004600087BB089590EF980F9830E8F461110EC0A3
:1004700044B321E030E0B90102C0660F771F9A95BE
:10048000E2F7CB018095842384BB089544B321E037
:1004900030E0B90102C0660F771F9A95E2F7CB01F1
:1004A000842B84BB089588518830E0F461110EC01C
:1004B00041B321E030E0B90102C0660F771F8A9591
:1004C000E2F7CB018095842381BB089541B321E0FD
:1004D00030E0B90102C0660F771F8A95E2F7CB01C1
:1004E000842B81BB08958830E8F461110EC04BB3B2
:1004F00021E030E0B90102C0660F771F8A95E2F76C
:10050000CB01809584238BBB08954BB321E030E071
:10051000B90102C0660F771F8A95E2F7CB01842BE1
:100520008BBB089598EF980F9830E8F461110EC0D6
:1005300048B321E030E0B90102C0660F771F9A95F9
:10054000E2F7CB018095842388BB089548B321E06E
:1005500030E0B90102C0660F771F9A95E2F7CB0130
:10056000842B88BB089590EF980F9830E8F46111C0
:100570000EC045B321E030E0B90102C0660F771F1D
:100580009A95E2F7CB018095842385BB089545B306
:1005900021E030E0B90102C0660F771F9A95E2F7BB
:1005A000CB01842B85BB089588518830E0F461111C
:1005B0000EC042B321E030E0B90102C0660F771FE0
:1005C0008A95E2F7CB018095842382BB089542B3DC
:1005D00021E030E0B90102C0660F771F8A95E2F78B
:1005E000CB01842B82BB089561E08CE00E94F20174
:1005F00061E08DE00E94F20160E08EE00E94F20175
:1006000061E08FE00E94F201089560E088E10E94BD
:10061000F20161E089E10E94F201089561E080E069
:100620000E9473020895CF93DF93CDB7DEB727976B
:100630000FB6F894DEBF0FBECDBF2EE033E03A8395
:1006400029839C838B837E836D8381E08F83CE019E
:1006500001960E9483010E940F0127960FB6F8941D
:10066000DEBF0FBECDBFDF91CF910895CF93DF9353
:1006700000D000D0CDB7DEB7789461E080E00E9472
:10068000F20160E080E00E9473020E9405030E9474
:10069000F40283E193E09A8389831B828AE28C834C
:1006A000CE0101960E9416010E9430010E94D501E0
:0606B000FBCFF894FFCF20
:0606B60001000100000339
:00000001FF
