S00D00004E6F6465332E737265635E
S11300000C942A000C9447000C9447000C9447006D
S11300100C9447000C9447000C9447000C94470040
S11300200C9447000C9447000C9447000C94470030
S11300300C949E000C9418010C94F1000C9447004D
S11300400C9447000C9447000C9447000C9449000E
S11300500C94470011241FBECFE5D8E0DEBFCDBF0E
S113006010E0A0E6B0E0E2EDF6E002C005900D92EB
S1130070AC36B107D9F724E0ACE6B0E001C01D927C
S1130080A037B207E1F70E9451030C9467030C9464
S113009000001F920F920FB60F9211242F933F93DB
S11300A04F935F936F937F938F939F93AF93BF937C
S11300B0EF93FF9380916D04813031F4E0916E04ED
S11300C0F0916F04099508C0E0916B04F0916C0401
S11300D085EC86BF83B10995FF91EF91BF91AF91F4
S11300E09F918F917F916F915F914F913F912F914C
S11300F00F900FBE0F901F90189580936D0482E0AF
S113010080B911B880ED82B984E086BF089584EA8D
S113011086BF06B607FEFDCF089583B985E886BF7E
S1130120089590936C0480936B0486B7856486BFAE
S1130130089590936F0480936E0408951F920F9214
S11301400FB60F9211242F933F934F935F936F93A6
S11301507F938F939F93AF93BF93EF93FF938FB14D
S1130160E0916C00F0916D000995FF91EF91BF91C2
S1130170AF919F918F917F916F915F914F913F913B
S11301802F910F900FBE0F901F901895FC011DB872
S11301902DB18581822B908120E8929FA0011124AA
S11301A0282F242B918130E2939FC0011124822BAC
S11301B0928140E1949F90011124282B8381880F20
S11301C0880F880F282B8481880F880F282B2DB93E
S11301D06E9A08958FB9089590936D0080936C0082
S11301E008951F920F920FB60F9211242F933F93ED
S11301F04F935F936F937F938F939F93AF93BF932B
S1130200EF93FF93E0917000F09171000995FF91D5
S1130210EF91BF91AF919F918F917F916F915F917A
S11302204F913F912F910F900FBE0F901F901895F3
S11302301F920F920FB60F9211242F933F934F9357
S11302405F936F937F938F939F93AF93BF93EF933A
S1130250FF938CB1E0916E00F0916F000995FF91CE
S1130260EF91BF91AF919F918F917F916F915F912A
S11302704F913F912F910F900FBE0F901F901895A3
S113028089E189B98AB188618AB980B5866880BDF7
S113029008955D9BFECF8CB908959093710080936F
S11302A07000559A089590936F0080936E00579A4A
S11302B0089591E090937600209177003091780032
S11302C0A9014F5F5F4F5093780040937700F90185
S11302D0E758FF4F808308951092780010927700BA
S11302E01092760008950F931F93CF93DF9300D05D
S11302F000D000D0CDB7DEB78C010E946C01E2E7DC
S1130300F0E0D8018D919C9111979183808312968E
S11303108C911297828313969C919383813059F028
S113032018F08230D1F020C00E94400189E591E0AC
S11303300E94530119C086E0E0E6F0E0DE01119668
S113034001900D928A95E1F7CE0101960E94C600B4
S113035089E591E00E94EC0007C080E00E947D00E6
S113036089E591E00E94910026960FB6F894DEBFCD
S11303700FBECDBFDF91CF911F910F910895809152
S113038076008823A9F0109276006091770070912E
S11303907800FB01E858FF4F908180917500981315
S11303A007C0E0917200F091730089E790E009952D
S11303B008958091620490916304209168043091BF
S11303C0690428173907E8F120916A04213079F08B
S11303D018F02230B9F020C02091660430916704EF
S11303E0F901E80FF91F80810E94490115C020918D
S11303F0660430916704F901E80FF91F80810E94B7
S1130400EA000AC02091660430916704F901E80FFC
S1130410F91F80810E948D00209162043091630451
S1130420C901019690936304809362044091680427
S1130430509169044817590720F4309363042093BA
S1130440620481E080936104089510926304109221
S113045062041092610408950F931F93CF93DF9366
S113046000D000D000D0CDB7DEB78C010E942502A9
S1130470D80116968C911697E4E6F4E086831496D8
S11304802D913C911597358324832D913C9111979F
S11304903183208312962D913C91139733832283C9
S11304A0813059F018F0823051F135C00E9440017A
S11304B089ED91E00E944D012EC086E0E6E6F0E071
S11304C0DE01119601900D928A95E1F7CE01019615
S11304D00E94C60089ED91E00E94EC00E091660460
S11304E0F091670480810E94EA00809162049091F7
S11304F06304019690936304809362040CC081E0CA
S11305000E947D000E94870080ED0E948D0089ED8D
S113051091E00E94990026960FB6F894DEBF0FBEB4
S1130520CDBFDF91CF911F910F9108958830E8F4EA
S113053061110EC04AB321E030E0B90102C0660F78
S1130540771F8A95E2F7CB01809584238ABB0895AF
S11305504AB321E030E0B90102C0660F771F8A95E3
S1130560E2F7CB01842B8ABB089598EF980F98305B
S1130570E8F461110EC047B321E030E0B90102C0D4
S1130580660F771F9A95E2F7CB018095842387BB8A
S1130590089547B321E030E0B90102C0660F771F28
S11305A09A95E2F7CB01842B87BB089590EF980FBF
S11305B09830E8F461110EC044B321E030E0B90191
S11305C002C0660F771F9A95E2F7CB0180958423CA
S11305D084BB089544B321E030E0B90102C0660F42
S11305E0771F9A95E2F7CB01842B84BB0895885139
S11305F08830E0F461110EC041B321E030E0B9016C
S113060002C0660F771F8A95E2F7CB018095842399
S113061081BB089541B321E030E0B90102C0660F07
S1130620771F8A95E2F7CB01842B81BB089560E0A4
S113063088E10E94960261E089E10E949602089591
S11306400895EF92FF920F931F93CF93DF93CDB74B
S1130650DEB727970FB6F894DEBF0FBECDBF8C016F
S11306607B010E94170380E293E09A8389830F5FE2
S11306701F4F1C830B83FE82ED821F82CE010196E5
S11306800E942C020E946C0127960FB6F894DEBFDC
S11306900FBECDBFDF91CF911F910F91FF90EF90CF
S11306A00895CF93DF9300D000D0CDB7DEB7789410
S11306B081E293E09A83898382E08B838AE28C834C
S11306C0CE0101960E9473010E94BF01FDCFF894F0
S10506D0FFCF56
S10F06D20100000000030100010000030F
S9030000FC
