S00D0000536C6176652E737265631C
S11300000C942A000C9447000C9447000C9447006D
S11300100C9447000C9447000C9447000C94470040
S11300200C9447000C9447000C9447000C94470030
S11300300C94C7000C942B010C9404010C944700FD
S11300400C9447000C9447000C9447000C9449000E
S11300500C94470011241FBECFE5D8E0DEBFCDBF0E
S113006010E0A0E6B0E0E0E2F4E002C005900D92FA
S1130070AA36B107D9F724E0AAE6B0E001C01D9280
S1130080AD37B207E1F70E9406020C940E020C94FD
S113009000001F920F920FB60F9211242F933F93DB
S11300A04F935F936F937F938F939F93AF93BF937C
S11300B0EF93FF9380916604813031F4E0916704FB
S11300C0F0916804099508C0E0916404F091650416
S11300D085EC86BF83B10995FF91EF91BF91AF91F4
S11300E09F918F917F916F915F914F913F912F914C
S11300F00F900FBE0F901F9018958093660482E0B6
S113010080B911B880ED82B984E086BF08959093D8
S113011065048093640486B7856486BF0895FC01F2
S113012090936B0080936A001DB82DB1908130E8E4
S1130130939FA00111248581822B282F242B918148
S113014040E2949FC0011124822B928140E1949F4C
S113015090011124282B8381880F880F880F282B66
S11301608481880F880F282B2DB96E9A0895909357
S11301706D0080936C000895E0916A00F0916B002B
S11301808081811102C0779BFECF8FB108951F92A9
S11301900F920FB60F9211242F933F934F935F93B7
S11301A06F937F938F939F93AF93BF93CF93DF937B
S11301B0EF93FF9376998EB1E0916A00F0916B0012
S11301C08281813031F4E0916E00F0916F000995E5
S11301D008C0C0916C00D0916D000E94BC00FE016B
S11301E00995FF91EF91DF91CF91BF91AF919F91CD
S11301F08F917F916F915F914F913F912F910F90CC
S11302000FBE0F901F9018951F920F920FB60F926A
S113021011242F933F934F935F936F937F938F9307
S11302209F93AF93BF93EF93FF93E0917200F0918C
S113023073000995FF91EF91BF91AF919F918F91B9
S11302407F916F915F914F913F912F910F900FBECE
S11302500F901F9018951F920F920FB60F921124B2
S11302602F933F934F935F936F937F938F939F93BA
S1130270AF93BF93EF93FF938CB1E0917000F09133
S113028071000995FF91EF91BF91AF919F918F916B
S11302907F916F915F914F913F912F910F900FBE7E
S11302A00F901F90189589E189B98AB188618AB93C
S11302B080B5866880BD0895909371008093700026
S11302C0579A089591E090937800209179003091A5
S11302D07A00A9014F5F5F4F50937A0040937900F1
S11302E0F901E558FF4F8083089510927A00109227
S11302F079001092780008950F931F93CF93DF93A2
S113030000D000D000D0CDB7DEB78C010E947501BB
S1130310E4E7F0E0D8018D919C911197918380835B
S113032013968C911397838312968C91813059F094
S113033018F08230D1F020C00E94530182E691E08F
S11303400E945C0119C086E0E4E6F0E0DE0111964B
S113035001900D928A95E1F7CE0101960E948F00DB
S113036082E691E00E94B70007C080E00E947D0011
S113037082E691E00E94870026960FB6F894DEBFCD
S11303800FBECDBFDF91CF911F910F910895809142
S11303907800882301F110927800E0917900F091BF
S11303A07A00E658FF4F908180917700981313C02C
S11303B080917600823041F4E0917400F0917500F0
S11303C083E694E009950895E0917400F091750036
S11303D08BE790E009950895AC0190916304FA01CC
S11303E0E90FF11D2081222371F0E92FF0E0E75994
S11303F0FB4F20839F5F90936304FA01E90FF11D83
S113040020812111F2CF0E9475010895789480E62D
S113041090E00E947C010E94C701FDCFF894FFCFB9
S10D0420EC01022A010000000003B1
S9030000FC
